S02000006F70656E626C745F6F6C696D65785F73746D3332703430352E7372656302
S3150800000000000220E5160008351700083517000815
S3150800001035170008351700083517000800000000D6
S31508000020000000000000000000000000351700086E
S3150800003035170008000000003517000835060008C7
S315080000403517000835170008351700083517000852
S315080000503517000835170008351700083517000842
S315080000603517000835170008351700083517000832
S315080000703517000835170008351700083517000822
S315080000803517000835170008351700083517000812
S315080000903517000835170008351700083517000802
S315080000A035170008351700083517000835170008F2
S315080000B035170008351700083517000835170008E2
S315080000C035170008351700083517000835170008D2
S315080000D035170008351700083517000835170008C2
S315080000E035170008351700083517000835170008B2
S315080000F035170008351700083517000835170008A2
S315080001003517000835170008351700083517000891
S315080001103517000835170008351700083517000881
S315080001203517000835170008351700083517000871
S315080001303517000800000000000000003517000809
S315080001403517000835170008351700083517000851
S315080001503517000835170008351700083517000841
S315080001603517000835170008351700083517000831
S3150800017035170008351700080000000000000000C9
S30D080001803517000835170008C1
S3150800018810B5054C237833B9044B13B10448AFF3BB
S3150800019800800123237010BD0C0000200000000019
S315080001A88017000808B5034B1BB103490348AFF38A
S315080001B8008008BD00000000100000208017000815
S315080001C872B6704762B67047FFF7FABF10B500F007
S315080001D8E6F9C8B100F0B6FCB0B100F055FB00F07E
S315080001E801FA00F0FBFC00F0DCF9084B20F060404F
S315080001F820F07F00986000F0D4F94468FFF7E2FF22
S315080002082346BDE81040184710BD00BF00ED00E0C2
S31508000218013A70B54D1E5618441AB54200D170BD3C
S3150800022815F8013F635500F058FBF6E7F8B50B4E8D
S31508000238054600240C2700F050FB07FB04F39A59DF
S31508000248AA4206D8334459680A44954201D2187A0C
S31508000258F8BD01340A2CEED1FF20F8BD981700081E
S315080002682DE9F843064600F0DBFD0024251DD6F8DF
S315080002780080775904EB080900F02FFB3A4600235B
S315080002884946022000F012FE68B954F808309F4221
S315080002980BD1B5F5007F2C46E8D1012400F0D2FD34
S315080002A82046BDE8F8830024F8E70446F6E7000088
S315080002B838B5104B984204460D4608D00E4A914266
S315080002C816D0FFF7CDFF18B90024204638BD0B4CC9
S315080002D8C5F30803002BF7D123689D42F5D02046BD
S315080002E84FF4007240F8045B2946FFF791FFECE7E4
S315080002F81C46EDE72C020020008000082800002094
S315080003082DE9F8439846036821F4FF760133044635
S315080003180D46174626F0010606D140F8046B4FF439
S3150800032800723146FFF774FF23689E4208D02046BC
S315080003383146FFF7BDFF044610B90020BDE8F8832B
S3150800034823680435ED1A2544B94606F5007600F003
S31508000358C4FA231DEB1AB3F5007F07D320463146A6
S31508000368FFF7A6FF04460028E7D0051D19F8013B44
S3150800037805F8013BA8EB0903DF42E8D10120BDE8EF
S31508000388F8830000034A4FF0FF331360024A1360EC
S31508000398704700BF280000202C020020FFF7F2BF94
S315080003A8124B70B51B1A16464A1E9A4204460D4643
S315080003B819D8FFF73BFFFF2815D0601E2844FFF71A
S315080003C835FFFF280FD024F4FF73094A23F00103E9
S315080003D8934221462B4632460CBF06480648BDE8D6
S315080003E87040FFF78DBF002070BD00BFFFFF0F08E4
S315080003F8008000082C0200202800002070B51C4B3D
S315080004084A1E1B1A9A4286B004460E4603D9002489
S31508000418204606B070BDFFF709FF0546601E304442
S31508000428FFF704FFFF2D0646F1D0FF28EFD000247A
S31508000438012D0094ECD90B28EAD88542E8D802237E
S31508000448059301230194049300F0EAFC00F045FAA9
S31508000458694601A8039500F0D5FD38B90135EBB210
S315080004689E42F3D2012400F0EDFCD1E70024FAE716
S31508000478FFFF0F0807B50F4A1368013317D09168AD
S3150800048853680D480B44D1680B4411690B445169EC
S315080004980B449169D2690B44134402AA5B4242F899
S315080004A8043D0421FFF77CFF03B05DF804FB012037
S315080004B8FAE700BF2C020020888100080D4B0E4A77
S315080004C81B68126813440D4A126813440C4A1268CA
S315080004D813440C4A126813440B4A126813440B4A0D
S315080004E8126813440A4A1268D3420CBF0120002036
S315080004F8704700BF008000080480000808800008CC
S315080005080C8000081080000814800008188000086D
S31508000518888100080A4808B50368013305D10948DF
S315080005280368013306D1012008BDFFF799FE0028A4
S31508000538F5D108BDFFF794FE003018BF012008BDA5
S315080005482C02002028000020004870470080000878
S3150800055808B500F00AFBBDE80840FFF71FBF70B5ED
S3150800056804460D46164600F001FB012807D030B1AF
S31508000578324629462046BDE87040FFF711BF70BDD0
S3150800058838B504460D4600F0F3FA012806D028B116
S3150800059829462046BDE83840FFF730BF38BDFFF783
S315080005A88DBFFFF7D1BF08B500F0E4FA30B1FFF701
S315080005B861FF18B1BDE80840FFF7ACBF002008BDC9
S315080005C8054B064900221A60596005219A60196088
S315080005D8034B1A60704700BF10E000E03F90020026
S315080005E830040020014B00221A60704710E000E032
S315080005F8044B1B68DB0341BF034A136801331360C6
S31508000608704700BF10E000E03004002008B5FFF787
S31508000618EFFF014B186808BD3004002008B5FFF73E
S31508000628E7FF014B186808BD300400207047000032
S3150800063838B5084C6060FFF7E9FF00F10A0523683A
S315080006481B0605D400F049F9FFF7E0FF8542F6D204
S3150800065838BD00BF0048004010B5104C88B04FF4AC
S31508000668E1330C2201A9019320460023059202933F
S31508000678039304930693079300F094FEE36843F400
S315080006880053E3600120FFF7D3FF6220FFF7D0FF8E
S315080006986C20FFF7CDFF08B010BD00BF004800402A
S315080006A8402970B506460C4603D97F21094800F04B
S315080006B86DF82046FFF7BCFF3546A4B2AB1B9BB2C4
S315080006C89C4200D870BD00F008F915F8010BFFF731
S315080006D8AFFFF3E710180008F8B5254D254A2C781A
S315080006E80E4614BB13689B0602D400242046F8BDA0
S315080006F85368214EDBB23370013B3F2BF5D8FFF721
S3150800070885FF1E4B18601E4B1C7033780122402B40
S315080007182A701C4B04D11A6020221B4B9A61E5E704
S315080007281B68012BE1D11022F7E7146814F020049E
S3150800073814D0134C104923785768CA1801335770D0
S315080007480A78DBB29A422370CFD10131FFF760FDF0
S3150800075800232B70237833700124C7E7FFF756FF69
S31508000768064B1B68FF339842BFD92C70BEE700BFFB
S315080007787904002000480040380400207C04002042
S315080007887A040020340400200004024008B500F06A
S31508000798A4F8FCE710B500F097F8012815D00B4C1B
S315080007A82378012B11D1FFF731FF094B094A1B683A
S315080007B81268134403F59C530833984205D300235B
S315080007C82370BDE81040FFF701BD10BD8404002062
S315080007D8800400208804002008B5044B1B78012BE8
S315080007E803D1FFF713FF024B186008BD84040020E5
S315080007F88804002008B5044B01221A70FFF7ECFF9D
S31508000808BDE80840FFF7C6BF8404002008B5FFF70F
S31508000818DBFC00F060F8FFF7D3FEFFF799FE00F05F
S315080008280FF8BDE80840FFF7E5BF08B500F055F82A
S31508000838FFF7DEFE00F010F8BDE80840FFF7AABF8C
S3150800084808B500F057F8FFF707FF024B00221A70A1
S3150800085808BD00BF0000002007B509480DF10701CB
S31508000868FFF73AFF012807D1064B9DF807100448F9
S3150800087800221A7000F05CF803B05DF804FB00BFAC
S315080008888C040020000000207047000008B5054BBE
S315080008981B7813B9C9B2FFF703FFBDE8084000F093
S315080008A83FB800BF00000020044B1B78013BDBB2B1
S315080008B8022B9ABF024AD05C4020704700000020ED
S315080008C839180008FFF7F0BF08B500F021F800301E
S315080008D818BF012008BD00F043B900F044B900006C
S315080008E8034BFE22DA7002221871A3F844207047D7
S315080008F8CC040020054B00221A709A6483F843201A
S31508000908A3F844209A705A70704700BFCC04002098
S31508000918024B1878003018BF01207047CC04002015
S31508000928024B002283F84320704700BFCC040020FE
S31508000938F8B50378804CFF2B05462DD100220125F2
S31508000948E37010232371627062712570FFF7BAFF8E
S31508000958A071FFF7A9FFE071FFF7A6FF0823000AB1
S3150800096820726572A572A4F84430FFF7F1FD94F871
S315080009784330012B02D11020FFF7B2FFB4F9441017
S31508000988002940F3D780012384F8433089B26B489D
S31508000998BDE8F840FFF77ABF2678012E40F0CA80EE
S315080009A8F32B58D01FD8CF2B00F0C18007D8C92BF6
S315080009B800F08680CC2B00F08C80202030E0D12BEC
S315080009C800F0AE80C0F08F80D22BF6D10025FF2329
S315080009D8E37025716571FFF775FFE571A0712572DA
S315080009E8657207232BE0FA2B4DD00BD8F52B11D0BF
S315080009F828D3F62BE1D1FF23E3704368A364A4F850
S31508000A084460B4E7FD2B4AD0FE2B53D0FC2BD4D137
S31508000A18002005E0FFF756FF6A78904203DC22209B
S31508000A28FFF75EFFA3E7A16C201DFFF7F1FBFF2385
S31508000A38E3706A78A36C1344A3646B780133A4F84B
S31508000A48443094E7FFF73EFF6B789842E7DD69681C
S31508000A58A1646A78E8E7FF23E370A66C476800256F
S31508000A683744BE4208D1012323710023C4F807502E
S31508000A786371A3710823E2E716F8013B1D44EDB23A
S31508000A88FFF72BFFEDE7FF23E3702D4BA364002345
S31508000A9823716371A3710723C4F80730EAE7FF23B4
S31508000AA8E3706278627100232371A371E37123727C
S31508000AB80623C4E7002323706370FF23E3709EE7C9
S31508000AC8A76CFFF7FFFE6A1C411E3846FFF747FD6D
S31508000AD808B93120A4E7FF23E370FFF7F3FEA36CF8
S31508000AE8013803448AE7FFF7EDFE6B780138984228
S31508000AF895DDFF23E370A4F84460697829B9FFF700
S31508000B0852FD00287FF433AFE3E7AA1CA06CFFF771
S31508000B1826FD0028DDD06A78A36C1344A36426E76B
S31508000B284168A06CFFF72CFD0028C6D1D1E7FFF76E
S31508000B384DFBC2E7F8BD00BFCC040020CF04002057
S31508000B483C18000808B5054B1B69DB0703D400F0F9
S31508000B583DF8012008BD002008BD00BF000002407E
S31508000B68642000F009B800F00DB8704702207047F5
S31508000B780220704701207047014B1880704700BF54
S31508000B881805002010B50D4CFFF740FD2268904265
S31508000B980ED30B4B0B4A197859B9012119704FF422
S31508000BA800239361FFF732FD074B1B881844206022
S31508000BB810BD002119700823F3E700BF1C050020A3
S31508000BC81A0500200004024018050020024B4FF4BD
S31508000BD880529A61704700BF0008024010B5094B59
S31508000BE84FF0FF3200241A621C625A625C621A616C
S31508000BF81C615A615C619A619C6100F043FD20465C
S31508000C0810BD00BF0038024038B50E4A0E4B0546DF
S31508000C1818784FF47A73B3FBF0F31068B0FBF3F067
S31508000C2800F076F8044658B90F2D09D80246294621
S31508000C384FF0FF3000F038F8044B20461D6038BDE9
S31508000C48012038BD0800002001000020040000200B
S31508000C5808B50B4B1A6842F400721A601A6842F40F
S31508000C6880621A601A6842F480721A60032000F0DB
S31508000C7809F80020FFF7C8FF00F0B0FC002008BDFF
S31508000C88003C0240074AD36823F4E0631B041B0CA4
S31508000C9843F0BF63000243F4003300F4E060034303
S31508000CA8D360704700ED00E0174B30B5DC68C4F335
S31508000CB80224C4F10703251D042B28BF0423062D87
S31508000CC84FF0010505FA03F303F1FF338CBF033C24
S31508000CD800241940A14005FA04F4013C22400028E2
S31508000CE842EA01024FEA0212AFBF00F1604000F083
S31508000CF80F00064BD2B2A5BF00F56140D2B21A540E
S31508000D0880F8002330BD00BF00ED00E014ED00E0D8
S31508000D180138B0F1807F0AD2064B074A5860F0219D
S31508000D2882F823100020072298601A60704701206D
S31508000D38704700BF10E000E000ED00E0084910B574
S31508000D480C6924F440740C610C6944F440740C6111
S31508000D580C6944F001040C610260436010BD00BFD1
S31508000D68003C0240074B1A6922F440721A611A6954
S31508000D7842F400721A611A6942F001021A610160A6
S31508000D88704700BF003C0240074B1A6922F44072BC
S31508000D981A611A6942F480721A611A6942F00102E4
S31508000DA81A610180704700BF003C02401A4BDA6896
S31508000DB8D20606D51949CA6942F01002CA61102234
S31508000DC8DA60DA68900606D51449CA6942F0080254
S31508000DD8CA612022DA60104BDA68510606D50F492F
S31508000DE8CA6942F00402CA614022DA60DA68120661
S31508000DF806D50A49CA6942F00202CA618022DA603F
S31508000E08054AD3689B0706D50449CB6943F02003EE
S31508000E18CB610223D3607047003C024020050020BE
S31508000E28064B1A69002ABFBF054A5A6002F188327A
S31508000E385A60BABF1869C00F00207047003C0240C4
S31508000E4823016745034A136943F0004313610020E9
S31508000E58704700BF003C0240F8B5124B124C0022FE
S31508000E680546DA61FFF7DAFB26460746E368DA033A
S31508000E780CD4E368DB0744BF0123E360F06810F08D
S31508000E88F20002D0FFF792FF0120F8BD691CEDD0E9
S31508000E980DB90320F8BDFFF7C1FBC01B8542E5D293
S31508000EA8F7E700BF20050020003C02402DE9F04185
S31508000EB8204D98462B7E012B07460E46144635D0FC
S31508000EC801234CF250302B76FFF7C6FFB0B9CFB9DD
S31508000ED8194B1A6922F440721A611A691A611A6951
S31508000EE8E4B242F001021A6134704CF25030FFF74E
S31508000EF8B3FF114A136923F00103136100232B7604
S31508000F08BDE8F081012F04D1A1B23046FFF73CFFB6
S31508000F18EBE7022F04D121463046FFF723FFE4E723
S31508000F28224643463046FFF709FFDEE70220BDE8BA
S31508000F38F08100BF20050020003C0240074B1A69D3
S31508000F4822F440721A611A6942F004021A611A698F
S31508000F5842F4803242EA002018617047003C024099
S31508000F6839B101291CD002290CBF4FF400714FF47E
S31508000F7840710D4B1A6922F440721A611A691143B5
S31508000F8819611A6922F0F8021A611A6942F002020E
S31508000F9842EAC00018611A6942F480321A61704739
S31508000FA84FF48071E5E700BF003C0240144B1A680D
S31508000FB891050FD51A6822F400721A601A6842F465
S31508000FC800621A601A6822F400621A601A6842F403
S31508000FD800721A600A4B1A6852050FD51A6822F465
S31508000FE880621A601A6842F480521A601A6822F4F3
S31508000FF880521A601A6842F480621A60704700BF05
S31508001008003C02402DE9F843234E337E012B044663
S3150800101888463FD001234CF250303376FFF71CFF41
S315080010280546A8B94FF0FF33C8F800302368012BE6
S3150800103813D1207CFFF782FF4CF25030FFF70CFFE4
S31508001048164A136923F0040305461361FFF7AEFF32
S31508001058002333762846BDE8F883A768DFF83C906E
S31508001068E368A26813449F42F0D2217C3846FFF70A
S3150800107877FF4CF25030FFF7EFFED9F8103023F01F
S31508001088FA03C9F8103018B1C8F800700546DDE744
S315080010980137E5E70225DDE720050020003C024088
S315080010A8024A136918431061704700BF00380240A6
S315080010B8024A136923EA00001061704700380240A3
S315080010C808B5274B984207D10120FFF7E9FF012009
S315080010D8FFF7EEFF012008BD224B984204D10220F3
S315080010E8FFF7DEFF0220F3E71F4B984204D10420DE
S315080010F8FFF7D6FF0420EBE71C4B984204D10820DB
S31508001108FFF7CEFF0820E3E7194B984204D11020D1
S31508001118FFF7C6FF1020DBE7164B984204D12020BC
S31508001128FFF7BEFF2020D3E7134B984204D140208F
S31508001138FFF7B6FF4020CBE7104B984204D1802032
S31508001148FFF7AEFF8020C3E70D4B984206D14FF450
S315080011588070FFF7A5FF4FF48070B9E7002008BD37
S31508001168000002400004024000080240000C024049
S31508001178001002400014024000180240001C0240F9
S31508001188002002402DE9F0430A6892FAA2F44FF0CB
S31508001198010EB4FA84F403250F2732FA04F30DD1A5
S315080011A84B68013B012B06D84368C96823EA020342
S315080011B84A431A4342600120BDE8F0830EFA04F355
S315080011C8134069D0D1F80480D0F8009093FAA3FCAC
S315080011D8BCFA8CFC93FAA3F6B6FA86F64FEA4C0CD8
S315080011E805FA0CFC760029EA0C0C08FA06F64CEA0D
S315080011F80606066008F1FF36012E16D8866893FAA1
S31508001208A3FCBCFA8CFC93FAA3F94FEA4C0C05FA32
S315080012180CFC26EA0C0CB9FA89F98E684FEA4909D2
S3150800122806FA09F64CEA06068660C66893FAA3FC27
S31508001238BCFA8CFC93FAA3F94FEA4C0C05FA0CFC99
S3150800124826EA0C0CB9FA89F90E694FEA490906FA29
S3150800125809F64CEA0606B8F1020FC6601CD193FADD
S31508001268A3F6B6FA86F6072ED1F814C016DCD0F817
S31508001278208093FAA3F6B6FA86F693FAA3F3B3FA96
S3150800128883F3B60007FA06F69B0028EA06060CFA60
S3150800129803FC46EA0C06066201347EE7D0F8248089
S315080012A81B0A93FAA3F6B6FA86F693FAA3F3B3FAE1
S315080012B883F3B60007FA06F69B0028EA06060CFA30
S315080012C803F333434362E7E7034B044A9B68C3F3D4
S315080012D80313D35CD8407047003802404418000806
S315080012E8034B044A9B68C3F38223D35CD8407047F0
S315080012F80038024054180008034B044A9B68C3F395
S315080013084233D35CD8407047003802405418000866
S315080013180F4B104A596810B50F4C01F48001002983
S3150800132808BF2246082810D1596858685B68C3F36D
S315080013380143C0F38810013301F03F015B00B2FB9B
S31508001348F1F25043B0FBF3F010BD002010BD00BF0A
S315080013580038024000127A000024F400064B986808
S3150800136800F00C00042803D0082803D00348704767
S3150800137803487047FFF7CCBF003802400024F40042
S3150800138800127A0010B50446FFF7E8FF2060FFF759
S315080013989BFF6060FFF7A4FFA0606068FFF7ACFFDB
S315080013A8E06010BD30B5C3689B0485B004460D4699
S315080013B802D5002005B030BD4B68C968C2680B4322
S315080013C829690B43A96922F416420B4322F00C0239
S315080013D81343C3600369AA6823F44053134303619C
S315080013E843696A6923F44073134343616846FFF700
S315080013F8C9FF274B9C4225D1039B002BD9D02968C6
S315080014080029D6D0AA69B2F5004F4FF019022ED195
S315080014185A434900B2FBF1F26421B2FBF1F001FB31
S315080014281023DB003233B3FBF1F39BB203F0070258
S315080014385B0002EB001203F4F87313449BB2A36033
S315080014480120B7E7134B9C4201D1029BD5E7124B03
S315080014589C42FAD003F54C439C42CDD0A3F54843A9
S315080014689C42F2D003F580639C42A2D1EDE7534330
S3150800147864228900B3FBF1F3B3FBF2F102FB1133E3
S315080014881B013233B3FBF2F303EB0113D6E700BFB4
S31508001498001001400044004000480040014B186015
S315080014A8704700BF080000200F49D1F8883043F478
S315080014B87003C1F888300D4B1A68002042F0010203
S315080014C81A6098601A6822F0847222F480321A60C8
S315080014D8074A5A601A6822F480221A60D8604FF0C0
S315080014E800638B60704700BF00ED00E000380240DB
S315080014F810300024054B1A6B02431A631B6B82B023
S3150800150818400190019B02B0704700BF003802409E
S3150800151808B5FFF79DFB294A136823F00F0343F024
S3150800152805031360136803F00F03052B03D06A211C
S315080015382348FFF72BF9234A136843F480431360BB
S31508001548214B224A59680A4042F4A84242F010023E
S315080015585A605A681E4922F440325A605A6811403D
S315080015681C4A0A435A601A6842F080721A601A6856
S315080015789201FCD59A6822F0F0029A609A6822F4D9
S31508001588E05242F4A0529A609A6822F4604242F401
S3150800159800429A609A6822F0030242F002029A60B0
S315080015A8094A936803F00C03082BFAD10A48FFF78F
S315080015B875FFFFF72BF9FFF738F9FCE7003C0240FF
S315080015C85C18000800700040003802400080BFFF21
S315080015D80080BFF010540007007A030A264970B540
S315080015E84B6C264E43F480434B644B6C8AB003F429
S315080015F880430393039B0B6C43F080530B640B6C7B
S3150800160803F0805302930120029BFFF773FF022021
S31508001618FFF770FF0420FFF76DFF0B6C43F4802378
S315080016280B640B6C03F48023019300240125019BAA
S315080016380595382304A93046049306940794089414
S31508001648FFF7A0FD4FF4005304A930460493059408
S315080016580895FFF797FD4FF4406304930223059313
S315080016680323069304A907230548079408950993AD
S31508001678FFF788FD0AB070BD003802400004024032
S315080016880008024008B51148FFF71AFD1048FFF789
S3150800169817FD1048FFF714FD0F4B1A6C22F4802229
S315080016A81A641A6B22F004021A631A6B22F00202F1
S315080016B81A631A6B22F001021A631A6C22F0805216
S315080016C81A645A6C22F480425A6408BD000802401B
S315080016D8000402400000024000380240DFF834D017
S315080016E8002103E00C4B5B58435004310B480C4B64
S315080016F842189A42F6D30B4A02E0002342F8043B02
S31508001708094B9A42F9D3FFF7CFFE00F011F8FFF715
S31508001718FFFE70470000022070180008000000202D
S315080017280C0000200C00002040050020FEE7000001
S3150800173870B50D4E0D4CA41BA4100025A54209D161
S315080017480B4E0C4C00F018F8A41BA4100025A54253
S3150800175805D170BD56F8253098470135EEE756F895
S31508001768253098470135F2E7681800086818000810
S31508001778681800086C180008F8B500BFF8BC08BC5B
S315080017889E467047F8B500BFF8BC08BC9E46704729
S3150800179800800008004000000200000000C00008A1
S315080017A800400000030000000000010800000100D6
S315080017B804000000000002080000020005000000FE
S315080017C800000408000002000600000000000608E1
S315080017D800000200070000000000080800000200D8
S315080017E80800000000000A080000020009000000BE
S315080017F800000C08000002000A00000000000E089D
S31508001808000002000B0000002E2E5C2E2E5C2E2EE9
S315080018185C2E2E5C536F757263655C41524D434D61
S31508001828345F53544D333246345C756172742E6393
S3150800183800083F004F70656E424C540000000000D7
S31508001848000000000102030406070809000000005A
S31508001858010203042E2E5C6D61696E2E630000007A
S30908001868AD010008B8
S3090800186C89010008D8
S3110800187004010000100000000024F40031
S705080016E5F7
